{
    "contractName": "lotteryGame",
    "abi": [
        {
            "anonymous": false,
            "inputs": [
                {
                    "indexed": true,
                    "internalType": "address",
                    "name": "owner",
                    "type": "address"
                },
                {
                    "indexed": true,
                    "internalType": "address",
                    "name": "spender",
                    "type": "address"
                },
                {
                    "indexed": false,
                    "internalType": "uint256",
                    "name": "value",
                    "type": "uint256"
                }
            ],
            "name": "Approval",
            "type": "event"
        },
        {
            "anonymous": false,
            "inputs": [
                {
                    "indexed": true,
                    "internalType": "address",
                    "name": "previousOwner",
                    "type": "address"
                },
                {
                    "indexed": true,
                    "internalType": "address",
                    "name": "newOwner",
                    "type": "address"
                }
            ],
            "name": "OwnershipTransferred",
            "type": "event"
        },
        {
            "anonymous": false,
            "inputs": [
                {
                    "indexed": false,
                    "internalType": "address",
                    "name": "account",
                    "type": "address"
                }
            ],
            "name": "Paused",
            "type": "event"
        },
        {
            "anonymous": false,
            "inputs": [
                {
                    "indexed": false,
                    "internalType": "uint256",
                    "name": "id",
                    "type": "uint256"
                }
            ],
            "name": "Snapshot",
            "type": "event"
        },
        {
            "anonymous": false,
            "inputs": [
                {
                    "indexed": true,
                    "internalType": "address",
                    "name": "from",
                    "type": "address"
                },
                {
                    "indexed": true,
                    "internalType": "address",
                    "name": "to",
                    "type": "address"
                },
                {
                    "indexed": false,
                    "internalType": "uint256",
                    "name": "value",
                    "type": "uint256"
                }
            ],
            "name": "Transfer",
            "type": "event"
        },
        {
            "anonymous": false,
            "inputs": [
                {
                    "indexed": false,
                    "internalType": "address",
                    "name": "account",
                    "type": "address"
                }
            ],
            "name": "Unpaused",
            "type": "event"
        },
        {
            "inputs": [],
            "name": "DOMAIN_SEPARATOR",
            "outputs": [
                {
                    "internalType": "bytes32",
                    "name": "",
                    "type": "bytes32"
                }
            ],
            "stateMutability": "view",
            "type": "function"
        },
        {
            "inputs": [
                {
                    "internalType": "address",
                    "name": "owner",
                    "type": "address"
                },
                {
                    "internalType": "address",
                    "name": "spender",
                    "type": "address"
                }
            ],
            "name": "allowance",
            "outputs": [
                {
                    "internalType": "uint256",
                    "name": "",
                    "type": "uint256"
                }
            ],
            "stateMutability": "view",
            "type": "function"
        },
        {
            "inputs": [
                {
                    "internalType": "address",
                    "name": "spender",
                    "type": "address"
                },
                {
                    "internalType": "uint256",
                    "name": "amount",
                    "type": "uint256"
                }
            ],
            "name": "approve",
            "outputs": [
                {
                    "internalType": "bool",
                    "name": "",
                    "type": "bool"
                }
            ],
            "stateMutability": "nonpayable",
            "type": "function"
        },
        {
            "inputs": [
                {
                    "internalType": "address",
                    "name": "account",
                    "type": "address"
                }
            ],
            "name": "balanceOf",
            "outputs": [
                {
                    "internalType": "uint256",
                    "name": "",
                    "type": "uint256"
                }
            ],
            "stateMutability": "view",
            "type": "function"
        },
        {
            "inputs": [
                {
                    "internalType": "address",
                    "name": "account",
                    "type": "address"
                },
                {
                    "internalType": "uint256",
                    "name": "snapshotId",
                    "type": "uint256"
                }
            ],
            "name": "balanceOfAt",
            "outputs": [
                {
                    "internalType": "uint256",
                    "name": "",
                    "type": "uint256"
                }
            ],
            "stateMutability": "view",
            "type": "function"
        },
        {
            "inputs": [
                {
                    "internalType": "uint256",
                    "name": "amount",
                    "type": "uint256"
                }
            ],
            "name": "burn",
            "outputs": [],
            "stateMutability": "nonpayable",
            "type": "function"
        },
        {
            "inputs": [
                {
                    "internalType": "address",
                    "name": "account",
                    "type": "address"
                },
                {
                    "internalType": "uint256",
                    "name": "amount",
                    "type": "uint256"
                }
            ],
            "name": "burnFrom",
            "outputs": [],
            "stateMutability": "nonpayable",
            "type": "function"
        },
        {
            "inputs": [],
            "name": "checkUserIsReward",
            "outputs": [
                {
                    "internalType": "bool",
                    "name": "",
                    "type": "bool"
                }
            ],
            "stateMutability": "view",
            "type": "function"
        },
        {
            "inputs": [
                {
                    "internalType": "uint8",
                    "name": "num",
                    "type": "uint8"
                }
            ],
            "name": "commonValidate",
            "outputs": [],
            "stateMutability": "pure",
            "type": "function"
        },
        {
            "inputs": [],
            "name": "decimals",
            "outputs": [
                {
                    "internalType": "uint8",
                    "name": "",
                    "type": "uint8"
                }
            ],
            "stateMutability": "view",
            "type": "function"
        },
        {
            "inputs": [
                {
                    "internalType": "address",
                    "name": "spender",
                    "type": "address"
                },
                {
                    "internalType": "uint256",
                    "name": "subtractedValue",
                    "type": "uint256"
                }
            ],
            "name": "decreaseAllowance",
            "outputs": [
                {
                    "internalType": "bool",
                    "name": "",
                    "type": "bool"
                }
            ],
            "stateMutability": "nonpayable",
            "type": "function"
        },
        {
            "inputs": [],
            "name": "getLottertyHitNumber",
            "outputs": [
                {
                    "internalType": "uint8",
                    "name": "",
                    "type": "uint8"
                }
            ],
            "stateMutability": "view",
            "type": "function"
        },
        {
            "inputs": [],
            "name": "getLotteryReward",
            "outputs": [
                {
                    "internalType": "uint16",
                    "name": "",
                    "type": "uint16"
                }
            ],
            "stateMutability": "view",
            "type": "function"
        },
        {
            "inputs": [],
            "name": "getLotteryTitle",
            "outputs": [
                {
                    "internalType": "string",
                    "name": "",
                    "type": "string"
                }
            ],
            "stateMutability": "view",
            "type": "function"
        },
        {
            "inputs": [],
            "name": "getMaxUserJoinedNumber",
            "outputs": [
                {
                    "internalType": "uint8",
                    "name": "",
                    "type": "uint8"
                }
            ],
            "stateMutability": "view",
            "type": "function"
        },
        {
            "inputs": [],
            "name": "getMaxUserRewardNumber",
            "outputs": [
                {
                    "internalType": "uint8",
                    "name": "",
                    "type": "uint8"
                }
            ],
            "stateMutability": "view",
            "type": "function"
        },
        {
            "inputs": [],
            "name": "getNowStatus",
            "outputs": [
                {
                    "internalType": "uint8",
                    "name": "",
                    "type": "uint8"
                }
            ],
            "stateMutability": "view",
            "type": "function"
        },
        {
            "inputs": [],
            "name": "getUserGuessNumber",
            "outputs": [
                {
                    "internalType": "uint8",
                    "name": "",
                    "type": "uint8"
                }
            ],
            "stateMutability": "view",
            "type": "function"
        },
        {
            "inputs": [],
            "name": "getUserGuestItem",
            "outputs": [
                {
                    "components": [
                        {
                            "internalType": "address",
                            "name": "userAddress",
                            "type": "address"
                        },
                        {
                            "internalType": "uint8",
                            "name": "guestNum",
                            "type": "uint8"
                        },
                        {
                            "internalType": "uint256",
                            "name": "guestTime",
                            "type": "uint256"
                        }
                    ],
                    "internalType": "struct lotteryGame.userGuestItem[]",
                    "name": "",
                    "type": "tuple[]"
                }
            ],
            "stateMutability": "view",
            "type": "function"
        },
        {
            "inputs": [],
            "name": "getUserHitRewardsList",
            "outputs": [
                {
                    "internalType": "address[]",
                    "name": "",
                    "type": "address[]"
                }
            ],
            "stateMutability": "view",
            "type": "function"
        },
        {
            "inputs": [],
            "name": "guestEndTime",
            "outputs": [
                {
                    "internalType": "uint256",
                    "name": "",
                    "type": "uint256"
                }
            ],
            "stateMutability": "view",
            "type": "function"
        },
        {
            "inputs": [
                {
                    "internalType": "address",
                    "name": "spender",
                    "type": "address"
                },
                {
                    "internalType": "uint256",
                    "name": "addedValue",
                    "type": "uint256"
                }
            ],
            "name": "increaseAllowance",
            "outputs": [
                {
                    "internalType": "bool",
                    "name": "",
                    "type": "bool"
                }
            ],
            "stateMutability": "nonpayable",
            "type": "function"
        },
        {
            "inputs": [],
            "name": "lotteryHitNumber",
            "outputs": [
                {
                    "internalType": "uint8",
                    "name": "",
                    "type": "uint8"
                }
            ],
            "stateMutability": "view",
            "type": "function"
        },
        {
            "inputs": [],
            "name": "lotteryReward",
            "outputs": [
                {
                    "internalType": "uint16",
                    "name": "",
                    "type": "uint16"
                }
            ],
            "stateMutability": "view",
            "type": "function"
        },
        {
            "inputs": [],
            "name": "lotteryTitle",
            "outputs": [
                {
                    "internalType": "string",
                    "name": "",
                    "type": "string"
                }
            ],
            "stateMutability": "view",
            "type": "function"
        },
        {
            "inputs": [],
            "name": "maxUserJoinedNumber",
            "outputs": [
                {
                    "internalType": "uint8",
                    "name": "",
                    "type": "uint8"
                }
            ],
            "stateMutability": "view",
            "type": "function"
        },
        {
            "inputs": [],
            "name": "maxUserRewardNumber",
            "outputs": [
                {
                    "internalType": "uint8",
                    "name": "",
                    "type": "uint8"
                }
            ],
            "stateMutability": "view",
            "type": "function"
        },
        {
            "inputs": [
                {
                    "internalType": "address",
                    "name": "to",
                    "type": "address"
                },
                {
                    "internalType": "uint256",
                    "name": "amount",
                    "type": "uint256"
                }
            ],
            "name": "mint",
            "outputs": [],
            "stateMutability": "nonpayable",
            "type": "function"
        },
        {
            "inputs": [],
            "name": "name",
            "outputs": [
                {
                    "internalType": "string",
                    "name": "",
                    "type": "string"
                }
            ],
            "stateMutability": "view",
            "type": "function"
        },
        {
            "inputs": [
                {
                    "internalType": "address",
                    "name": "owner",
                    "type": "address"
                }
            ],
            "name": "nonces",
            "outputs": [
                {
                    "internalType": "uint256",
                    "name": "",
                    "type": "uint256"
                }
            ],
            "stateMutability": "view",
            "type": "function"
        },
        {
            "inputs": [],
            "name": "nowStatus",
            "outputs": [
                {
                    "internalType": "uint8",
                    "name": "",
                    "type": "uint8"
                }
            ],
            "stateMutability": "view",
            "type": "function"
        },
        {
            "inputs": [],
            "name": "openReward",
            "outputs": [],
            "stateMutability": "nonpayable",
            "type": "function"
        },
        {
            "inputs": [],
            "name": "owner",
            "outputs": [
                {
                    "internalType": "address",
                    "name": "",
                    "type": "address"
                }
            ],
            "stateMutability": "view",
            "type": "function"
        },
        {
            "inputs": [],
            "name": "pause",
            "outputs": [],
            "stateMutability": "nonpayable",
            "type": "function"
        },
        {
            "inputs": [],
            "name": "paused",
            "outputs": [
                {
                    "internalType": "bool",
                    "name": "",
                    "type": "bool"
                }
            ],
            "stateMutability": "view",
            "type": "function"
        },
        {
            "inputs": [
                {
                    "internalType": "address",
                    "name": "owner",
                    "type": "address"
                },
                {
                    "internalType": "address",
                    "name": "spender",
                    "type": "address"
                },
                {
                    "internalType": "uint256",
                    "name": "value",
                    "type": "uint256"
                },
                {
                    "internalType": "uint256",
                    "name": "deadline",
                    "type": "uint256"
                },
                {
                    "internalType": "uint8",
                    "name": "v",
                    "type": "uint8"
                },
                {
                    "internalType": "bytes32",
                    "name": "r",
                    "type": "bytes32"
                },
                {
                    "internalType": "bytes32",
                    "name": "s",
                    "type": "bytes32"
                }
            ],
            "name": "permit",
            "outputs": [],
            "stateMutability": "nonpayable",
            "type": "function"
        },
        {
            "inputs": [],
            "name": "renounceOwnership",
            "outputs": [],
            "stateMutability": "nonpayable",
            "type": "function"
        },
        {
            "inputs": [],
            "name": "resetLotteryStatus",
            "outputs": [],
            "stateMutability": "nonpayable",
            "type": "function"
        },
        {
            "inputs": [
                {
                    "internalType": "address",
                    "name": "to",
                    "type": "address"
                },
                {
                    "internalType": "uint256",
                    "name": "reward",
                    "type": "uint256"
                }
            ],
            "name": "sendUserMoney",
            "outputs": [],
            "stateMutability": "payable",
            "type": "function"
        },
        {
            "inputs": [],
            "name": "sendUserMoney",
            "outputs": [],
            "stateMutability": "payable",
            "type": "function"
        },
        {
            "inputs": [
                {
                    "internalType": "uint8",
                    "name": "num",
                    "type": "uint8"
                }
            ],
            "name": "setLotteryHitNumber",
            "outputs": [],
            "stateMutability": "nonpayable",
            "type": "function"
        },
        {
            "inputs": [
                {
                    "internalType": "string",
                    "name": "title",
                    "type": "string"
                },
                {
                    "internalType": "uint8",
                    "name": "userJoinedNum",
                    "type": "uint8"
                },
                {
                    "internalType": "uint8",
                    "name": "userRewardNum",
                    "type": "uint8"
                },
                {
                    "internalType": "uint16",
                    "name": "reward",
                    "type": "uint16"
                }
            ],
            "name": "setLottetryInfo",
            "outputs": [],
            "stateMutability": "nonpayable",
            "type": "function"
        },
        {
            "inputs": [],
            "name": "snapshot",
            "outputs": [],
            "stateMutability": "nonpayable",
            "type": "function"
        },
        {
            "inputs": [],
            "name": "startUserJoinGame",
            "outputs": [],
            "stateMutability": "nonpayable",
            "type": "function"
        },
        {
            "inputs": [],
            "name": "stopGame",
            "outputs": [],
            "stateMutability": "nonpayable",
            "type": "function"
        },
        {
            "inputs": [],
            "name": "stopUserJoinGame",
            "outputs": [],
            "stateMutability": "nonpayable",
            "type": "function"
        },
        {
            "inputs": [],
            "name": "symbol",
            "outputs": [
                {
                    "internalType": "string",
                    "name": "",
                    "type": "string"
                }
            ],
            "stateMutability": "view",
            "type": "function"
        },
        {
            "inputs": [],
            "name": "totalSupply",
            "outputs": [
                {
                    "internalType": "uint256",
                    "name": "",
                    "type": "uint256"
                }
            ],
            "stateMutability": "view",
            "type": "function"
        },
        {
            "inputs": [
                {
                    "internalType": "uint256",
                    "name": "snapshotId",
                    "type": "uint256"
                }
            ],
            "name": "totalSupplyAt",
            "outputs": [
                {
                    "internalType": "uint256",
                    "name": "",
                    "type": "uint256"
                }
            ],
            "stateMutability": "view",
            "type": "function"
        },
        {
            "inputs": [
                {
                    "internalType": "address",
                    "name": "to",
                    "type": "address"
                },
                {
                    "internalType": "uint256",
                    "name": "amount",
                    "type": "uint256"
                }
            ],
            "name": "transfer",
            "outputs": [
                {
                    "internalType": "bool",
                    "name": "",
                    "type": "bool"
                }
            ],
            "stateMutability": "nonpayable",
            "type": "function"
        },
        {
            "inputs": [
                {
                    "internalType": "address",
                    "name": "from",
                    "type": "address"
                },
                {
                    "internalType": "address",
                    "name": "to",
                    "type": "address"
                },
                {
                    "internalType": "uint256",
                    "name": "amount",
                    "type": "uint256"
                }
            ],
            "name": "transferFrom",
            "outputs": [
                {
                    "internalType": "bool",
                    "name": "",
                    "type": "bool"
                }
            ],
            "stateMutability": "nonpayable",
            "type": "function"
        },
        {
            "inputs": [
                {
                    "internalType": "address",
                    "name": "newOwner",
                    "type": "address"
                }
            ],
            "name": "transferOwnership",
            "outputs": [],
            "stateMutability": "nonpayable",
            "type": "function"
        },
        {
            "inputs": [],
            "name": "unpause",
            "outputs": [],
            "stateMutability": "nonpayable",
            "type": "function"
        },
        {
            "inputs": [
                {
                    "internalType": "address",
                    "name": "",
                    "type": "address"
                }
            ],
            "name": "userGuest",
            "outputs": [
                {
                    "internalType": "uint8",
                    "name": "",
                    "type": "uint8"
                }
            ],
            "stateMutability": "view",
            "type": "function"
        },
        {
            "inputs": [
                {
                    "internalType": "uint256",
                    "name": "",
                    "type": "uint256"
                }
            ],
            "name": "userGuestList",
            "outputs": [
                {
                    "internalType": "address",
                    "name": "userAddress",
                    "type": "address"
                },
                {
                    "internalType": "uint8",
                    "name": "guestNum",
                    "type": "uint8"
                },
                {
                    "internalType": "uint256",
                    "name": "guestTime",
                    "type": "uint256"
                }
            ],
            "stateMutability": "view",
            "type": "function"
        },
        {
            "inputs": [
                {
                    "internalType": "uint8",
                    "name": "userGuestNum",
                    "type": "uint8"
                }
            ],
            "name": "userGuestOne",
            "outputs": [],
            "stateMutability": "payable",
            "type": "function"
        },
        {
            "inputs": [
                {
                    "internalType": "uint256",
                    "name": "",
                    "type": "uint256"
                }
            ],
            "name": "userHitRewards",
            "outputs": [
                {
                    "internalType": "address",
                    "name": "",
                    "type": "address"
                }
            ],
            "stateMutability": "view",
            "type": "function"
        }
    ],
    "bytecode": "610140604052600e805464ffff00000019166401010000001790556000600f553480156200002c57600080fd5b506040518060400160405280600281526020016123a760f11b81525080604051806040016040528060018152602001603160f81b8152506040518060400160405280600281526020016123a760f11b8152506040518060400160405280600281526020016123a760f11b8152508160039081620000aa91906200057d565b506004620000b982826200057d565b505050620000d6620000d0620001a260201b60201c565b620001a6565b6009805460ff60a01b19169055815160209283012081519183019190912060e08290526101008190524660a0818152604080517f8b73c3c69bb8fe3d512ecc4cf759cc79239f7b179b0ffacaa9a75d522b39400f818801819052818301969096526060810194909452608080850193909352308483018190528151808603909301835260c09485019091528151919095012090529190915261012052506200019c33620001866012600a6200075e565b62000196906305f5e0ff62000776565b620001f8565b620007d2565b3390565b600980546001600160a01b038381166001600160a01b0319831681179093556040519116919082907f8be0079c531659141344cd1fd0a4f28419497f9722a3daafe3b4186f6b6457e090600090a35050565b6001600160a01b038216620002545760405162461bcd60e51b815260206004820152601f60248201527f45524332303a206d696e7420746f20746865207a65726f20616464726573730060448201526064015b60405180910390fd5b6200026260008383620002ef565b806002600082825462000276919062000790565b90915550506001600160a01b03821660009081526020819052604081208054839290620002a590849062000790565b90915550506040518181526001600160a01b038316906000907fddf252ad1be2c89b69c2b068fc378daa952ba7f163c4a11628f55a4df523b3ef9060200160405180910390a35050565b620002f962000316565b620003118383836200036e60201b620018981760201c565b505050565b6200032a600954600160a01b900460ff1690565b156200036c5760405162461bcd60e51b815260206004820152601060248201526f14185d5cd8589b194e881c185d5cd95960821b60448201526064016200024b565b565b620003868383836200031160201b62000d331760201c565b6001600160a01b038316620003aa57620003a082620003d5565b620003116200040d565b6001600160a01b038216620003c457620003a083620003d5565b620003cf83620003d5565b62000311825b6001600160a01b038116600090815260056020908152604080832091839052909120546200040a91906200041d565b6200041d565b50565b6200036c60066200040460025490565b6000620004296200046c565b90508062000437846200048a565b101562000311578254600180820185556000858152602080822090930193909355938401805494850181558252902090910155565b6000620004856008620004d560201b620018e01760201c565b905090565b805460009081036200049e57506000919050565b81548290620004b090600190620007a6565b81548110620004c357620004c3620007bc565b90600052602060002001549050919050565b5490565b634e487b7160e01b600052604160045260246000fd5b600181811c908216806200050457607f821691505b6020821081036200052557634e487b7160e01b600052602260045260246000fd5b50919050565b601f8211156200031157600081815260208120601f850160051c81016020861015620005545750805b601f850160051c820191505b81811015620005755782815560010162000560565b505050505050565b81516001600160401b03811115620005995762000599620004d9565b620005b181620005aa8454620004ef565b846200052b565b602080601f831160018114620005e95760008415620005d05750858301515b600019600386901b1c1916600185901b17855562000575565b600085815260208120601f198616915b828110156200061a57888601518255948401946001909101908401620005f9565b5085821015620006395787850151600019600388901b60f8161c191681555b5050505050600190811b01905550565b634e487b7160e01b600052601160045260246000fd5b600181815b80851115620006a057816000190482111562000684576200068462000649565b808516156200069257918102915b93841c939080029062000664565b509250929050565b600082620006b95750600162000758565b81620006c85750600062000758565b8160018114620006e15760028114620006ec576200070c565b600191505062000758565b60ff84111562000700576200070062000649565b50506001821b62000758565b5060208310610133831016604e8410600b841016171562000731575081810a62000758565b6200073d83836200065f565b806000190482111562000754576200075462000649565b0290505b92915050565b60006200076f60ff841683620006a8565b9392505050565b808202811582820484141762000758576200075862000649565b8082018082111562000758576200075862000649565b8181038181111562000758576200075862000649565b634e487b7160e01b600052603260045260246000fd5b60805160a05160c05160e0516101005161012051612eef620008226000396000611d3f01526000611d8e01526000611d6901526000611cc201526000611cec01526000611d160152612eef6000f3fe6080604052600436106103765760003560e01c806383bd72ba116101d1578063a35dcf2c11610102578063d64315a0116100a0578063f2fde38b1161006f578063f2fde38b146109c2578063f51880c1146109e2578063fb8eab4114610a04578063feaddeea14610a2457600080fd5b8063d64315a01461095e578063dd62ed3e14610973578063dea380de14610993578063eaa4c3b0146109ad57600080fd5b8063a9059cbb116100dc578063a9059cbb146108eb578063bad154361461090b578063d20c450814610920578063d505accf1461093e57600080fd5b8063a35dcf2c14610884578063a457c2d7146108a6578063a4e94b55146108c657600080fd5b80639395533a1161016f5780639711715a116101495780639711715a14610827578063981b24d01461083c578063984ac3781461085c5780639da332b11461087157600080fd5b80639395533a146107f55780639483ea581461080a57806395d89b411461081257600080fd5b8063863ae82a116101ab578063863ae82a1461076a578063880d4c341461077f5780638cca98b61461079f5780638da5cb5b146107d757600080fd5b806383bd72ba146107205780638456cb591461073557806384b615c01461074a57600080fd5b806342966c68116102ab578063715018a61161024957806379cc67901161022357806379cc6790146106a45780637ecebe00146106c457806380170087146106e457806382f17ea2146106ff57600080fd5b8063715018a6146106375780637313ad251461064c57806376c9080c1461067457600080fd5b806357d4b7561161028557806357d4b756146105795780635c975abb146105c05780636221e0c3146105df57806370a082311461060157600080fd5b806342966c68146105235780634ee2cd7e1461054357806356d1e5751461056357600080fd5b806323b872dd11610318578063374a0aad116102f2578063374a0aad146104ae57806339509351146104ce5780633f4ba83a146104ee57806340c10f191461050357600080fd5b806323b872dd14610465578063313ce567146104855780633644e5151461049957600080fd5b80630ca5a63b116103545780630ca5a63b146103fc578063117c3cfe146104135780631556352d1461043357806318160ddd1461044657600080fd5b806306fdde031461037b578063074b98ad146103a6578063095ea7b3146103cc575b600080fd5b34801561038757600080fd5b50610390610a43565b60405161039d9190612818565b60405180910390f35b3480156103b257600080fd5b50600c5460ff165b60405160ff909116815260200161039d565b3480156103d857600080fd5b506103ec6103e736600461287d565b610ad5565b604051901515815260200161039d565b34801561040857600080fd5b50610411610aef565b005b34801561041f57600080fd5b5061041161042e3660046128b8565b610cb2565b61041161044136600461287d565b610d11565b34801561045257600080fd5b506002545b60405190815260200161039d565b34801561047157600080fd5b506103ec6104803660046128d3565b610d38565b34801561049157600080fd5b5060126103ba565b3480156104a557600080fd5b50610457610d5c565b3480156104ba57600080fd5b506104116104c9366004612937565b610d6b565b3480156104da57600080fd5b506103ec6104e936600461287d565b610dd0565b3480156104fa57600080fd5b50610411610df2565b34801561050f57600080fd5b5061041161051e36600461287d565b610e04565b34801561052f57600080fd5b5061041161053e366004612a1a565b610e1a565b34801561054f57600080fd5b5061045761055e36600461287d565b610e24565b34801561056f57600080fd5b50610457600f5481565b34801561058557600080fd5b50610599610594366004612a1a565b610e7d565b604080516001600160a01b03909416845260ff90921660208401529082015260600161039d565b3480156105cc57600080fd5b50600954600160a01b900460ff166103ec565b3480156105eb57600080fd5b506105f4610ec0565b60405161039d9190612a33565b34801561060d57600080fd5b5061045761061c366004612a80565b6001600160a01b031660009081526020819052604090205490565b34801561064357600080fd5b50610411610f21565b34801561065857600080fd5b50600e5461ffff165b60405161ffff909116815260200161039d565b34801561068057600080fd5b506103ba61068f366004612a80565b60106020526000908152604090205460ff1681565b3480156106b057600080fd5b506104116106bf36600461287d565b610f33565b3480156106d057600080fd5b506104576106df366004612a80565b610f48565b3480156106f057600080fd5b50600e546106619061ffff1681565b34801561070b57600080fd5b50600e546103ba906301000000900460ff1681565b34801561072c57600080fd5b50610411610f66565b34801561074157600080fd5b50610411610f81565b34801561075657600080fd5b506104116107653660046128b8565b610f91565b34801561077657600080fd5b5061039061100c565b34801561078b57600080fd5b50600e54640100000000900460ff166103ba565b3480156107ab57600080fd5b506107bf6107ba366004612a1a565b61101b565b6040516001600160a01b03909116815260200161039d565b3480156107e357600080fd5b506009546001600160a01b03166107bf565b34801561080157600080fd5b50610411611045565b610411611060565b34801561081e57600080fd5b5061039061116d565b34801561083357600080fd5b5061041161117c565b34801561084857600080fd5b50610457610857366004612a1a565b61118c565b34801561086857600080fd5b506103906111b7565b61041161087f3660046128b8565b611245565b34801561089057600080fd5b50600e546103ba90640100000000900460ff1681565b3480156108b257600080fd5b506103ec6108c136600461287d565b61141c565b3480156108d257600080fd5b503360009081526010602052604090205460ff166103ba565b3480156108f757600080fd5b506103ec61090636600461287d565b611497565b34801561091757600080fd5b506103ec6114a5565b34801561092c57600080fd5b50600e5462010000900460ff166103ba565b34801561094a57600080fd5b50610411610959366004612a9b565b611512565b34801561096a57600080fd5b50610411611676565b34801561097f57600080fd5b5061045761098e366004612b05565b611691565b34801561099f57600080fd5b50600c546103ba9060ff1681565b3480156109b957600080fd5b506104116116bc565b3480156109ce57600080fd5b506104116109dd366004612a80565b61179b565b3480156109ee57600080fd5b506109f7611811565b60405161039d9190612b38565b348015610a1057600080fd5b50600e546103ba9062010000900460ff1681565b348015610a3057600080fd5b50600e546301000000900460ff166103ba565b606060038054610a5290612b9d565b80601f0160208091040260200160405190810160405280929190818152602001828054610a7e90612b9d565b8015610acb5780601f10610aa057610100808354040283529160200191610acb565b820191906000526020600020905b815481529060010190602001808311610aae57829003601f168201915b5050505050905090565b600033610ae38185856118e4565b60019150505b92915050565b610af7611a08565b600c805460ff19169055604080516020810190915260008152600d90610b1d9082612c1f565b50600e805464ffffffffff19166401010000001790556000600f8190555b601154811015610b9f576010600060118381548110610b5c57610b5c612cdf565b600091825260208083206002909202909101546001600160a01b031683528201929092526040019020805460ff1916905580610b9781612d0b565b915050610b3b565b5060005b601154811015610bf9576011805480610bbe57610bbe612d24565b60008281526020812060026000199093019283020180546001600160a81b031916815560010155905580610bf181612d0b565b915050610ba3565b5060005b601254811015610c5c576013600060128381548110610c1e57610c1e612cdf565b60009182526020808320909101546001600160a01b031683528201929092526040019020805460ff1916905580610c5481612d0b565b915050610bfd565b5060005b601254811015610caf576012805480610c7b57610c7b612d24565b600082815260209020810160001990810180546001600160a01b031916905501905580610ca781612d0b565b915050610c60565b50565b60018160ff1610158015610cca575060068160ff1611155b610caf5760405162461bcd60e51b81526020600482015260136024820152726e756d206973206f7574206f662072616e676560681b60448201526064015b60405180910390fd5b610d19611a08565b610d3382610d296012600a612e16565b6109069084612e25565b505050565b600033610d46858285611a62565b610d51858585611adc565b506001949350505050565b6000610d66611cb5565b905090565b610d73611a08565b600e805460ff8481166401000000000264ff00000000199187166301000000029190911664ffff0000001990921691909117179055600d610db48582612c1f565b50600e805461ffff191661ffff92909216919091179055505050565b600033610ae3818585610de38383611691565b610ded9190612e3c565b6118e4565b610dfa611a08565b610e02611ddc565b565b610e0c611a08565b610e168282611e31565b5050565b610caf3382611f1c565b6001600160a01b038216600090815260056020526040812081908190610e4b908590612076565b9150915081610e72576001600160a01b038516600090815260208190526040902054610e74565b805b95945050505050565b60118181548110610e8d57600080fd5b6000918252602090912060029091020180546001909101546001600160a01b0382169250600160a01b90910460ff169083565b60606012805480602002602001604051908101604052809291908181526020018280548015610acb57602002820191906000526020600020905b81546001600160a01b03168152600190910190602001808311610efa575050505050905090565b610f29611a08565b610e026000612172565b610f3e823383611a62565b610e168282611f1c565b6001600160a01b0381166000908152600a6020526040812054610ae9565b610f6e611a08565b600e805462ff0000191662030000179055565b610f89611a08565b610e026121c4565b610f99611a08565b600e5460ff6201000090910416600214610ff55760405162461bcd60e51b815260206004820152601e60248201527f737461747573206973206e6f742077616974206f70656e2072657761726400006044820152606401610d08565b600c805460ff191660ff8316179055610caf6116bc565b6060600d8054610a5290612b9d565b6012818154811061102b57600080fd5b6000918252602090912001546001600160a01b0316905081565b61104d611a08565b600e805462ff0000191662010000179055565b611068611a08565b600e5461ffff1615610e025760005b601254811015610caf57601360006012838154811061109857611098612cdf565b60009182526020808320909101546001600160a01b0316835282019290925260400190205460ff1661115b5761110c601282815481106110da576110da612cdf565b6000918252602090912001546001600160a01b03166110fb6012600a612e16565b600e54610906919061ffff16612e25565b506001601360006012848154811061112657611126612cdf565b6000918252602080832091909101546001600160a01b031683528201929092526040019020805460ff19169115159190911790555b8061116581612d0b565b915050611077565b606060048054610a5290612b9d565b611184611a08565b610caf612207565b600080600061119c846006612076565b91509150816111ad576002546111af565b805b949350505050565b600d80546111c490612b9d565b80601f01602080910402602001604051908101604052809291908181526020018280546111f090612b9d565b801561123d5780601f106112125761010080835404028352916020019161123d565b820191906000526020600020905b81548152906001019060200180831161122057829003601f168201915b505050505081565b600e5462010000900460ff166001146112975760405162461bcd60e51b81526020600482015260146024820152731b1bdd1d195c9e481b9bdd081bdc195b881e595d60621b6044820152606401610d08565b3360009081526010602052604090205460ff16156112f75760405162461bcd60e51b815260206004820152601860248201527f7573657220686173206a6f696e6564207468652067616d6500000000000000006044820152606401610d08565b600e54601154630100000090910460ff161161134c5760405162461bcd60e51b815260206004820152601460248201527337baba1037b3103537b4b732b210373ab6b132b960611b6044820152606401610d08565b61135581610cb2565b336000818152601060209081526040808320805460ff96871660ff199091168117909155815160608101835294855291840191825242908401908152601180546001810182559352925160029092027f31ecc21a745e3968a04e9570e4425bc18fa8019c68028196b546d1669c200c68810180549251909516600160a01b026001600160a81b03199092166001600160a01b03939093169290921717909255517f31ecc21a745e3968a04e9570e4425bc18fa8019c68028196b546d1669c200c6990910155565b6000338161142a8286611691565b90508381101561148a5760405162461bcd60e51b815260206004820152602560248201527f45524332303a2064656372656173656420616c6c6f77616e63652062656c6f77604482015264207a65726f60d81b6064820152608401610d08565b610d5182868684036118e4565b600033610ae3818585611adc565b6000805b60125460ff8216101561150a57336001600160a01b031660128260ff16815481106114d6576114d6612cdf565b6000918252602090912001546001600160a01b0316036114f857600191505090565b8061150281612e4f565b9150506114a9565b506000905090565b834211156115625760405162461bcd60e51b815260206004820152601d60248201527f45524332305065726d69743a206578706972656420646561646c696e650000006044820152606401610d08565b60007f6e71edae12b1b97f4d1f60370fef10105fa2faae0126114a169c64845d6126c98888886115918c612261565b6040805160208101969096526001600160a01b0394851690860152929091166060840152608083015260a082015260c0810186905260e00160405160208183030381529060405280519060200120905060006115ec82612289565b905060006115fc828787876122d7565b9050896001600160a01b0316816001600160a01b03161461165f5760405162461bcd60e51b815260206004820152601e60248201527f45524332305065726d69743a20696e76616c6964207369676e617475726500006044820152606401610d08565b61166a8a8a8a6118e4565b50505050505050505050565b61167e611a08565b600e805462ff0000191662020000179055565b6001600160a01b03918216600090815260016020908152604080832093909416825291909152205490565b6116c4611a08565b60005b60115481101561179257600c546011805460ff90921691839081106116ee576116ee612cdf565b6000918252602090912060029091020154600160a01b900460ff161480156117255750600e5460125464010000000090910460ff16115b156117805760126011828154811061173f5761173f612cdf565b600091825260208083206002909202909101548354600181018555938352912090910180546001600160a01b0319166001600160a01b039092169190911790555b8061178a81612d0b565b9150506116c7565b50610e02611060565b6117a3611a08565b6001600160a01b0381166118085760405162461bcd60e51b815260206004820152602660248201527f4f776e61626c653a206e6577206f776e657220697320746865207a65726f206160448201526564647265737360d01b6064820152608401610d08565b610caf81612172565b60606011805480602002602001604051908101604052809291908181526020016000905b8282101561188f576000848152602090819020604080516060810182526002860290920180546001600160a01b0381168452600160a01b900460ff1683850152600190810154918301919091529083529092019101611835565b50505050905090565b6001600160a01b0383166118b7576118af826122ff565b610d33612331565b6001600160a01b0382166118ce576118af836122ff565b6118d7836122ff565b610d33826122ff565b5490565b6001600160a01b0383166119465760405162461bcd60e51b8152602060048201526024808201527f45524332303a20617070726f76652066726f6d20746865207a65726f206164646044820152637265737360e01b6064820152608401610d08565b6001600160a01b0382166119a75760405162461bcd60e51b815260206004820152602260248201527f45524332303a20617070726f766520746f20746865207a65726f206164647265604482015261737360f01b6064820152608401610d08565b6001600160a01b0383811660008181526001602090815260408083209487168084529482529182902085905590518481527f8c5be1e5ebec7d5bd14f71427d1e84f3dd0314c0f7b2291e5b200ac8c7c3b925910160405180910390a3505050565b6009546001600160a01b03163314610e025760405162461bcd60e51b815260206004820181905260248201527f4f776e61626c653a2063616c6c6572206973206e6f7420746865206f776e65726044820152606401610d08565b6000611a6e8484611691565b90506000198114611ad65781811015611ac95760405162461bcd60e51b815260206004820152601d60248201527f45524332303a20696e73756666696369656e7420616c6c6f77616e63650000006044820152606401610d08565b611ad684848484036118e4565b50505050565b6001600160a01b038316611b405760405162461bcd60e51b815260206004820152602560248201527f45524332303a207472616e736665722066726f6d20746865207a65726f206164604482015264647265737360d81b6064820152608401610d08565b6001600160a01b038216611ba25760405162461bcd60e51b815260206004820152602360248201527f45524332303a207472616e7366657220746f20746865207a65726f206164647260448201526265737360e81b6064820152608401610d08565b611bad83838361233f565b6001600160a01b03831660009081526020819052604090205481811015611c255760405162461bcd60e51b815260206004820152602660248201527f45524332303a207472616e7366657220616d6f756e7420657863656564732062604482015265616c616e636560d01b6064820152608401610d08565b6001600160a01b03808516600090815260208190526040808220858503905591851681529081208054849290611c5c908490612e3c565b92505081905550826001600160a01b0316846001600160a01b03167fddf252ad1be2c89b69c2b068fc378daa952ba7f163c4a11628f55a4df523b3ef84604051611ca891815260200190565b60405180910390a3611ad6565b6000306001600160a01b037f000000000000000000000000000000000000000000000000000000000000000016148015611d0e57507f000000000000000000000000000000000000000000000000000000000000000046145b15611d3857507f000000000000000000000000000000000000000000000000000000000000000090565b50604080517f00000000000000000000000000000000000000000000000000000000000000006020808301919091527f0000000000000000000000000000000000000000000000000000000000000000828401527f000000000000000000000000000000000000000000000000000000000000000060608301524660808301523060a0808401919091528351808403909101815260c0909201909252805191012090565b611de4612352565b6009805460ff60a01b191690557f5db9ee0a495bf2e6ff9c91a7834c1ba4fdd244a5e8aa4e537bd38aeae4b073aa335b6040516001600160a01b03909116815260200160405180910390a1565b6001600160a01b038216611e875760405162461bcd60e51b815260206004820152601f60248201527f45524332303a206d696e7420746f20746865207a65726f2061646472657373006044820152606401610d08565b611e936000838361233f565b8060026000828254611ea59190612e3c565b90915550506001600160a01b03821660009081526020819052604081208054839290611ed2908490612e3c565b90915550506040518181526001600160a01b038316906000907fddf252ad1be2c89b69c2b068fc378daa952ba7f163c4a11628f55a4df523b3ef9060200160405180910390a35050565b6001600160a01b038216611f7c5760405162461bcd60e51b815260206004820152602160248201527f45524332303a206275726e2066726f6d20746865207a65726f206164647265736044820152607360f81b6064820152608401610d08565b611f888260008361233f565b6001600160a01b03821660009081526020819052604090205481811015611ffc5760405162461bcd60e51b815260206004820152602260248201527f45524332303a206275726e20616d6f756e7420657863656564732062616c616e604482015261636560f01b6064820152608401610d08565b6001600160a01b038316600090815260208190526040812083830390556002805484929061202b908490612e6e565b90915550506040518281526000906001600160a01b038516907fddf252ad1be2c89b69c2b068fc378daa952ba7f163c4a11628f55a4df523b3ef9060200160405180910390a3505050565b600080600084116120c25760405162461bcd60e51b815260206004820152601660248201527504552433230536e617073686f743a20696420697320360541b6044820152606401610d08565b6120ca6123a2565b8411156121195760405162461bcd60e51b815260206004820152601d60248201527f4552433230536e617073686f743a206e6f6e6578697374656e742069640000006044820152606401610d08565b600061212584866123ad565b8454909150810361213d57600080925092505061216b565b600184600101828154811061215457612154612cdf565b9060005260206000200154925092505061216b565b505b9250929050565b600980546001600160a01b038381166001600160a01b0319831681179093556040519116919082907f8be0079c531659141344cd1fd0a4f28419497f9722a3daafe3b4186f6b6457e090600090a35050565b6121cc612472565b6009805460ff60a01b1916600160a01b1790557f62e78cea01bee320cd4e420270b5ea74000d11b0c9f74754ebdbfc544b05a258611e143390565b6000612217600880546001019055565b60006122216123a2565b90507f8030e83b04d87bef53480e26263266d6ca66863aa8506aca6f2559d18aa1cb678160405161225491815260200190565b60405180910390a1919050565b6001600160a01b0381166000908152600a602052604090208054600181018255905b50919050565b6000610ae9612296611cb5565b8360405161190160f01b6020820152602281018390526042810182905260009060620160405160208183030381529060405280519060200120905092915050565b60008060006122e8878787876124bf565b915091506122f5816125ac565b5095945050505050565b6001600160a01b03811660009081526005602090815260408083209183905290912054610caf9190612762565b612762565b610e02600661232c60025490565b612347612472565b610d33838383611898565b600954600160a01b900460ff16610e025760405162461bcd60e51b815260206004820152601460248201527314185d5cd8589b194e881b9bdd081c185d5cd95960621b6044820152606401610d08565b6000610d6660085490565b815460009081036123c057506000610ae9565b82546000905b8082101561241c5760006123da83836127ac565b9050848682815481106123ef576123ef612cdf565b9060005260206000200154111561240857809150612416565b612413816001612e3c565b92505b506123c6565b60008211801561245157508385612434600185612e6e565b8154811061244457612444612cdf565b9060005260206000200154145b1561246a57612461600183612e6e565b92505050610ae9565b509050610ae9565b600954600160a01b900460ff1615610e025760405162461bcd60e51b815260206004820152601060248201526f14185d5cd8589b194e881c185d5cd95960821b6044820152606401610d08565b6000807f7fffffffffffffffffffffffffffffff5d576e7357a4501ddfe92f46681b20a08311156124f657506000905060036125a3565b8460ff16601b1415801561250e57508460ff16601c14155b1561251f57506000905060046125a3565b6040805160008082526020820180845289905260ff881692820192909252606081018690526080810185905260019060a0016020604051602081039080840390855afa158015612573573d6000803e3d6000fd5b5050604051601f1901519150506001600160a01b03811661259c576000600192509250506125a3565b9150600090505b94509492505050565b60008160048111156125c0576125c0612e81565b036125c85750565b60018160048111156125dc576125dc612e81565b036126295760405162461bcd60e51b815260206004820152601860248201527f45434453413a20696e76616c6964207369676e617475726500000000000000006044820152606401610d08565b600281600481111561263d5761263d612e81565b0361268a5760405162461bcd60e51b815260206004820152601f60248201527f45434453413a20696e76616c6964207369676e6174757265206c656e677468006044820152606401610d08565b600381600481111561269e5761269e612e81565b036126f65760405162461bcd60e51b815260206004820152602260248201527f45434453413a20696e76616c6964207369676e6174757265202773272076616c604482015261756560f01b6064820152608401610d08565b600481600481111561270a5761270a612e81565b03610caf5760405162461bcd60e51b815260206004820152602260248201527f45434453413a20696e76616c6964207369676e6174757265202776272076616c604482015261756560f01b6064820152608401610d08565b600061276c6123a2565b905080612778846127ce565b1015610d33578254600180820185556000858152602080822090930193909355938401805494850181558252902090910155565b60006127bb6002848418612e97565b6127c790848416612e3c565b9392505050565b805460009081036127e157506000919050565b815482906127f190600190612e6e565b8154811061280157612801612cdf565b90600052602060002001549050919050565b919050565b600060208083528351808285015260005b8181101561284557858101830151858201604001528201612829565b506000604082860101526040601f19601f8301168501019250505092915050565b80356001600160a01b038116811461281357600080fd5b6000806040838503121561289057600080fd5b61289983612866565b946020939093013593505050565b803560ff8116811461281357600080fd5b6000602082840312156128ca57600080fd5b6127c7826128a7565b6000806000606084860312156128e857600080fd5b6128f184612866565b92506128ff60208501612866565b9150604084013590509250925092565b634e487b7160e01b600052604160045260246000fd5b803561ffff8116811461281357600080fd5b6000806000806080858703121561294d57600080fd5b843567ffffffffffffffff8082111561296557600080fd5b818701915087601f83011261297957600080fd5b81358181111561298b5761298b61290f565b604051601f8201601f19908116603f011681019083821181831017156129b3576129b361290f565b816040528281528a60208487010111156129cc57600080fd5b8260208601602083013760006020848301015280985050505050506129f3602086016128a7565b9250612a01604086016128a7565b9150612a0f60608601612925565b905092959194509250565b600060208284031215612a2c57600080fd5b5035919050565b6020808252825182820181905260009190848201906040850190845b81811015612a745783516001600160a01b031683529284019291840191600101612a4f565b50909695505050505050565b600060208284031215612a9257600080fd5b6127c782612866565b600080600080600080600060e0888a031215612ab657600080fd5b612abf88612866565b9650612acd60208901612866565b95506040880135945060608801359350612ae9608089016128a7565b925060a0880135915060c0880135905092959891949750929550565b60008060408385031215612b1857600080fd5b612b2183612866565b9150612b2f60208401612866565b90509250929050565b602080825282518282018190526000919060409081850190868401855b82811015612b9057815180516001600160a01b031685528681015160ff16878601528501518585015260609093019290850190600101612b55565b5091979650505050505050565b600181811c90821680612bb157607f821691505b60208210810361228357634e487b7160e01b600052602260045260246000fd5b601f821115610d3357600081815260208120601f850160051c81016020861015612bf85750805b601f850160051c820191505b81811015612c1757828155600101612c04565b505050505050565b815167ffffffffffffffff811115612c3957612c3961290f565b612c4d81612c478454612b9d565b84612bd1565b602080601f831160018114612c825760008415612c6a5750858301515b600019600386901b1c1916600185901b178555612c17565b600085815260208120601f198616915b82811015612cb157888601518255948401946001909101908401612c92565b5085821015612ccf5787850151600019600388901b60f8161c191681555b5050505050600190811b01905550565b634e487b7160e01b600052603260045260246000fd5b634e487b7160e01b600052601160045260246000fd5b600060018201612d1d57612d1d612cf5565b5060010190565b634e487b7160e01b600052603160045260246000fd5b600181815b80851115612169578160001904821115612d5b57612d5b612cf5565b80851615612d6857918102915b93841c9390800290612d3f565b600082612d8457506001610ae9565b81612d9157506000610ae9565b8160018114612da75760028114612db157612dcd565b6001915050610ae9565b60ff841115612dc257612dc2612cf5565b50506001821b610ae9565b5060208310610133831016604e8410600b8410161715612df0575081810a610ae9565b612dfa8383612d3a565b8060001904821115612e0e57612e0e612cf5565b029392505050565b60006127c760ff841683612d75565b8082028115828204841417610ae957610ae9612cf5565b80820180821115610ae957610ae9612cf5565b600060ff821660ff8103612e6557612e65612cf5565b60010192915050565b81810381811115610ae957610ae9612cf5565b634e487b7160e01b600052602160045260246000fd5b600082612eb457634e487b7160e01b600052601260045260246000fd5b50049056fea26469706673582212201c7242256f2e9f8819c94df43746373562d9973f4a52dfd196aa5a709078496b64736f6c63430008110033",
    "sourcePath": "/Users/meow.zang/mywebs/node/guess-number-contract/contracts/lotteryGame.sol",
    "compiler": {
        "name": "solc",
        "version": "0.8.17+commit.8df45f5f"
    },
    "functionHashes": {
        "DOMAIN_SEPARATOR()": "3644e515",
        "allowance(address,address)": "dd62ed3e",
        "approve(address,uint256)": "095ea7b3",
        "balanceOf(address)": "70a08231",
        "balanceOfAt(address,uint256)": "4ee2cd7e",
        "burn(uint256)": "42966c68",
        "burnFrom(address,uint256)": "79cc6790",
        "checkUserIsReward()": "bad15436",
        "commonValidate(uint8)": "117c3cfe",
        "decimals()": "313ce567",
        "decreaseAllowance(address,uint256)": "a457c2d7",
        "getLottertyHitNumber()": "074b98ad",
        "getLotteryReward()": "7313ad25",
        "getLotteryTitle()": "863ae82a",
        "getMaxUserJoinedNumber()": "feaddeea",
        "getMaxUserRewardNumber()": "880d4c34",
        "getNowStatus()": "d20c4508",
        "getUserGuessNumber()": "a4e94b55",
        "getUserGuestItem()": "f51880c1",
        "getUserHitRewardsList()": "6221e0c3",
        "guestEndTime()": "56d1e575",
        "increaseAllowance(address,uint256)": "39509351",
        "lotteryHitNumber()": "dea380de",
        "lotteryReward()": "80170087",
        "lotteryTitle()": "984ac378",
        "maxUserJoinedNumber()": "82f17ea2",
        "maxUserRewardNumber()": "a35dcf2c",
        "mint(address,uint256)": "40c10f19",
        "name()": "06fdde03",
        "nonces(address)": "7ecebe00",
        "nowStatus()": "fb8eab41",
        "openReward()": "eaa4c3b0",
        "owner()": "8da5cb5b",
        "pause()": "8456cb59",
        "paused()": "5c975abb",
        "permit(address,address,uint256,uint256,uint8,bytes32,bytes32)": "d505accf",
        "renounceOwnership()": "715018a6",
        "resetLotteryStatus()": "0ca5a63b",
        "sendUserMoney()": "9483ea58",
        "sendUserMoney(address,uint256)": "1556352d",
        "setLotteryHitNumber(uint8)": "84b615c0",
        "setLottetryInfo(string,uint8,uint8,uint16)": "374a0aad",
        "snapshot()": "9711715a",
        "startUserJoinGame()": "9395533a",
        "stopGame()": "83bd72ba",
        "stopUserJoinGame()": "d64315a0",
        "symbol()": "95d89b41",
        "totalSupply()": "18160ddd",
        "totalSupplyAt(uint256)": "981b24d0",
        "transfer(address,uint256)": "a9059cbb",
        "transferFrom(address,address,uint256)": "23b872dd",
        "transferOwnership(address)": "f2fde38b",
        "unpause()": "3f4ba83a",
        "userGuest(address)": "76c9080c",
        "userGuestList(uint256)": "57d4b756",
        "userGuestOne(uint8)": "9da332b1",
        "userHitRewards(uint256)": "8cca98b6"
    },
    "gasEstimates": {
        "creation": {
            "codeDepositCost": "2403000",
            "executionCost": "infinite",
            "totalCost": "infinite"
        },
        "external": {
            "DOMAIN_SEPARATOR()": "infinite",
            "allowance(address,address)": "infinite",
            "approve(address,uint256)": "24719",
            "balanceOf(address)": "2674",
            "balanceOfAt(address,uint256)": "infinite",
            "burn(uint256)": "infinite",
            "burnFrom(address,uint256)": "infinite",
            "checkUserIsReward()": "infinite",
            "commonValidate(uint8)": "555",
            "decimals()": "292",
            "decreaseAllowance(address,uint256)": "27040",
            "getLottertyHitNumber()": "2388",
            "getLotteryReward()": "2386",
            "getLotteryTitle()": "infinite",
            "getMaxUserJoinedNumber()": "2450",
            "getMaxUserRewardNumber()": "2408",
            "getNowStatus()": "2429",
            "getUserGuessNumber()": "2487",
            "getUserGuestItem()": "infinite",
            "getUserHitRewardsList()": "infinite",
            "guestEndTime()": "2408",
            "increaseAllowance(address,uint256)": "infinite",
            "lotteryHitNumber()": "2424",
            "lotteryReward()": "2424",
            "lotteryTitle()": "infinite",
            "maxUserJoinedNumber()": "2457",
            "maxUserRewardNumber()": "2392",
            "mint(address,uint256)": "infinite",
            "name()": "infinite",
            "nonces(address)": "2660",
            "nowStatus()": "2434",
            "openReward()": "infinite",
            "owner()": "2465",
            "pause()": "infinite",
            "paused()": "2411",
            "permit(address,address,uint256,uint256,uint8,bytes32,bytes32)": "infinite",
            "renounceOwnership()": "infinite",
            "resetLotteryStatus()": "infinite",
            "sendUserMoney()": "infinite",
            "sendUserMoney(address,uint256)": "infinite",
            "setLotteryHitNumber(uint8)": "infinite",
            "setLottetryInfo(string,uint8,uint8,uint16)": "infinite",
            "snapshot()": "29872",
            "startUserJoinGame()": "26600",
            "stopGame()": "26601",
            "stopUserJoinGame()": "26599",
            "symbol()": "infinite",
            "totalSupply()": "2416",
            "totalSupplyAt(uint256)": "infinite",
            "transfer(address,uint256)": "infinite",
            "transferFrom(address,address,uint256)": "infinite",
            "transferOwnership(address)": "28402",
            "unpause()": "infinite",
            "userGuest(address)": "2646",
            "userGuestList(uint256)": "6888",
            "userGuestOne(uint8)": "104154",
            "userHitRewards(uint256)": "4726"
        }
    }
}